:100000000C94E4000C940C010C940C010C940C0165
:100010000C940C010C940C010C940C010C940C012C
:100020000C940C010C940C010C947D070C94EC07BF
:100030000C940C010C940C010C940C010C940C010C
:100040000C940C010C940C010C940C010C940C01FC
:100050000C940C010C940C010C940C010C943307BF
:100060000C940C010C94440A0C941E0A0C940C0180
:100070000C940C010C940C010C940C010C940C01CC
:100080000C940C010C940C010C940C010C940C01BC
:100090000C94760A0C940C010C940C010C940C0139
:1000A0000C940C010C940C010C940C01080B000234
:1000B0000202000009040000010202000005240001
:1000C0001001052401010104240206052406000193
:1000D0000705810310004009040100020A00000026
:1000E00007050202400000070583024000000403E8
:1000F000090412010002EF020140FB1F002300016E
:1001000001020301506F6C6F6C7520436F72706F4A
:10011000726174696F6E00506F6C6F6C7520412D49
:100120005374617220333255340057656C636F6DC0
:10013000652E005D002C20726F743D002C206964D8
:100140003D002C20683D002C20773D002C20637959
:100150003D00546167205B63783D0000000000258E
:100160000028002B002E00310004040404040304C2
:100170000502020202040302020202060606060645
:100180000604040202020404040802011040804034
:1001900010204080408008020401804020100201AD
:1001A000108010204040200000000200090F0000D5
:1001B000030401000C00000000000000000000002B
:1001C000000000000000950B11241FBECFEFDAE005
:1001D000DEBFCDBF11E0A0E0B1E0E0EDFAE102C08A
:1001E00005900D92AC34B107D9F723E0ACE4B1E04F
:1001F00001C01D92AD30B207E1F710E0C4EED0E0CF
:1002000004C02197FE010E94600DC33ED107C9F7CB
:100210000E94E00B0C94660D0C940000FC01809190
:10022000B601882311F13FB7F89482E08093E9008A
:100230002091F200822F90E01816190614F481E044
:1002400090E0882339F0289844E64093B501409126
:10025000F1004083222339F02091F200211103C0E4
:100260002BE62093E8003FBF08958FEF9FEF08959E
:100270002FB7F89483E08093E9009091E800892FEC
:10028000807295FF04C09091F20080E4891B2FBF1B
:1002900008958091AD0181110DC082E08093A90184
:1002A00084E08093AA011092AC011092AB0181E02E
:1002B0008093AD0189EA91E00895282F30E0F9019B
:1002C000E955FE4F9491F901E857FE4F8491275963
:1002D0003E4FF9012491222309F430C09923E9F01B
:1002E00091509F30D0F4E92FF0E0E758FE4F0C9486
:1002F000600DA701AB0188019F01A3018D018D0154
:100300008D01AE01B401B801BC01C2018D01C6016D
:10031000909180009F7790938000E22FF0E0EE0FA5
:10032000FF1FE55AFE4FA591B4919FB7F894EC9149
:10033000611132C080958E238C939FBF0895909158
:1003400080009F7DE8CF90918000977FE4CF94B5A7
:100350009F7794BDE2CF94B59F7DFBCF90919000A5
:100360009F7790939000D9CF909190009F7DF9CF87
:1003700090919000977FF5CF9091C0009F779093D8
:10038000C000CBCF9091C0009F7DF9CF9091C2006B
:10039000977F9093C200C1CF8E2BCECF3FB7F894FA
:1003A0008091A5019091A601A091A701B091A8010B
:1003B00026B5A89B05C02F3F19F00196A11DB11DC0
:1003C0003FBFBA2FA92F982F8827BC01CD01620FFC
:1003D000711D811D911D42E0660F771F881F991FB7
:1003E0004A95D1F708958F929F92AF92BF92CF9284
:1003F000DF92EF92FF924B015C010E94CE016B01F4
:100400007C010E94CE016C197D098E099F09683E0E
:10041000734081059105A8F321E0821A9108A10893
:10042000B10888EEC80E83E0D81EE11CF11C8114CF
:100430009104A104B10429F7FF90EF90DF90CF90D1
:10044000BF90AF909F908F90089508950895409128
:1004500092015091930120919001309191014217A6
:100460005307B4F49091E8009570E1F39091E8009F
:1004700092FD19C08093F1008091920190919301B7
:1004800001968F739927892B19F48EEF8093E800DA
:1004900080919201909193010196909393018093A2
:1004A000920181E0089580E00895EF92FF920F930A
:1004B0001F93CF93DF93F82E192FE62E042F81E0A0
:1004C000860F880F0E94270283E00E942702CF2D0B
:1004D000D12FEC0EFD2EF11CCE15DF05B9F007FF74
:1004E00013C0FE0184910E942702182F80E00E9411
:1004F0002702812321968111EFCFDF91CF911F91A8
:100500000F91FF90EF9008958881EDCF81E0F5CFB6
:10051000DF92EF92FF920F931F93CF93DF93D82E2A
:100520008A01EB017B01E40EF51ECE15DF0559F0C3
:10053000D7FE12C0FE0184910E94270221968111EC
:10054000F4CF0FEF1FEFC801DF91CF911F910F91F3
:10055000FF90EF90DF9008958881EECF0F931F9367
:10056000CF93DF931F92CDB7DEB782E0898342E459
:1005700050E06CEA70E080E80E9488020E94490125
:10058000DC0112960D911C910115110589F0D8011D
:10059000ED91FC910280F381E02DBE016F5F7F4FF2
:1005A000C801099597FD04C0F80100851185ECCFBD
:1005B00089810F90DF91CF911F910F910895615024
:1005C00030F02091F100FC0120830196F8CF2898AB
:1005D00084E68093B5010895AF92BF92CF92DF92E7
:1005E000EF92FF920F931F93CF93DF936C017B01E8
:1005F0008B01040F151FEB015E01AE18BF08C01779
:10060000D10759F06991D601ED91FC910190F081EB
:10061000E02DC6010995892B79F7C501DF91CF91AE
:100620001F910F91FF90EF90DF90CF90BF90AF9010
:100630000895FC01538D448D252F30E0842F90E0E8
:10064000821B930B541710F0CF96089501970895CD
:10065000FC01918D828D981761F0A28DAE0FBF2F96
:10066000B11D5D968C91928D9F5F9F73928F90E0EC
:1006700008958FEF9FEF0895FC01918D828D98175B
:1006800031F0828DE80FF11D858D90E008958FEF98
:100690009FEF0895FC01918D228D892F90E0805C61
:1006A0009F4F821B91098F739927089583E092E0F1
:1006B0000E944A0321E0892B09F420E0822F08954B
:1006C00080E090E0892B29F00E94560381110C9460
:1006D00000000895FC01A48DA80FB92FB11DA35AE5
:1006E000BF4F2C91848D90E001968F739927848F52
:1006F000A689B7892C93A089B1898C9182748C9337
:10070000938D848D981306C00288F389E02D808133
:100710008F7D80830895EF92FF920F931F93CF9365
:10072000DF93EC0181E0888F9B8D8C8D981319C02D
:10073000E889F989808185FF14C09FB7F894EE8914
:10074000FF896083E889F9898081827480839FBFF3
:1007500081E090E0DF91CF911F910F91FF90EF909A
:100760000895F62E0B8D10E00F5F1F4F0F731127AA
:10077000E02E8C8D8E110CC00FB607FCFACFE889E5
:10078000F989808185FFF5CFCE010E946A03F1CF00
:10079000EB8DEC0FFD2FF11DE35AFF4FF0829FB759
:1007A000F8940B8FEA89FB8980818062CFCFCF9349
:1007B000DF93EC01888D8823B9F0AA89BB89E88989
:1007C000F9898C9185FD03C0808186FD0DC00FB62F
:1007D00007FCF7CF8C9185FFF2CF808185FFEDCFAD
:1007E000CE010E946A03E9CFDF91CF9108958F92E5
:1007F0009F92AF92BF92CF92DF92EF92FF920F93B0
:100800001F93CF93DF936C017B018A0180910B01D1
:10081000882309F45CC08091B601882309F457C08D
:100820008091960180FF05C08091E00082608093F6
:10083000E000E801B12C8AEFA82E93E0892E2AE38C
:10084000922E209711F4BB20D9F10E94380181111A
:100850000AC0AA94AA20D9F161E070E080E090E09B
:100860000E94F301EECF8C171D0611F00CF08C2FB7
:100870009FB7F8948092E9002091E80025FD02C01E
:100880009FBFDFCF282F30E0C21BD30BF701815071
:1008900020F041914093F100FACFE20EF31EBB200D
:1008A00021F09092E800B12CEBCF8091E80085FD1B
:1008B000E7CF9092E800BB24B394209709F3F3CFDD
:1008C0005D9884E680939501101611063CF081E056
:1008D00090E0F6019383828310E000E0C801DF918D
:1008E000CF911F910F91FF90EF90DF90CF90BF902D
:1008F000AF909F908F900895CF93DF931F92CDB7C5
:10090000DEB76983DC01ED91FC910280F381E02D7B
:1009100041E050E0BE016F5F7F4F09950F90DF917E
:10092000CF9108950F931F93CF93DF938C01D0E065
:10093000C0E0F801EC0FFD1F6491662341F080EAEE
:1009400092E00E947C04892B11F02196F2CFCE0117
:10095000DF91CF911F910F91089583E08093E9007B
:100960008091F200882319F08AE38093E8000895CB
:100970000E94380190E00895CF93DF931F92CDB786
:10098000DEB7FC018485958597FD08C02FEF3FEF0A
:10099000358724870F90DF91CF910895CE0101967E
:1009A0000E940E01019719F4898190E0F3CF8FEF37
:1009B0009FEFF0CF0F931F93CF93DF931F92CDB78D
:1009C000DEB78C01FC018485958597FF0BC0CE01B5
:1009D00001960E940E01019771F4898190E0F8015F
:1009E00095878487F801848595850F90DF91CF9155
:1009F0001F910F9108958FEF9FEFF1CFFC01848538
:100A0000958597FD0BC09FB7F89482E08093E9002D
:100A10008091F2009FBF90E0019608959FB7F894EF
:100A200082E08093E9008091F2009FBF90E00895FA
:100A300020916D01260F3327331F21323105ECF44D
:100A40002091FD01FC0190E080E0243069F082E01B
:100A50000895A0916D012191AC01435B5E4FA40FFD
:100A6000B52FB11D2C930196861798F380916D01D7
:100A7000680F60936D0180E0089581E00895109201
:100A8000FD0181E08093DC011092D70161E082E0FA
:100A90000E945D0161E083E00E945D01E9EBF0E00E
:100AA00080818E7F808380818D7F808388E48093A6
:100AB000B80085E48093BC000895CF93DF9391E064
:100AC00090934C018823B9F0C091B800D091BA003E
:100AD0008091BC008A7B8093BC0060E082E00E9431
:100AE0005D0160E083E00E945D010E943F05D093BC
:100AF000BA00C093B800DF91CF9108958F929F9272
:100B0000AF92BF92CF92DF92EF92FF920F931F931B
:100B1000CF93DF93D82FC62F142F613208F09CC0DB
:100B20000E94CE016B017C018091FD0181116FC09B
:100B300081E08093FD011093DC019FEF9093DB0136
:100B40001092DA019C0F9093D9018093D801809183
:100B5000D801DD0FD82BD093D8018091D7018130F7
:100B600009F07CC01092D7010E94CE016B017C017C
:100B70008091D8018093BB008091FF019091000289
:100B8000A0910102B0910202892B8A2B8B2BA1F03C
:100B90000E94CE010091FF011091000220910102FC
:100BA000309102026C197D098E099F0906171707FB
:100BB0002807390708F44CC08091BC0083FDD8CFCA
:100BC00085EC8093BC000E94CE016B017C0180917A
:100BD000FD01813009F444C08091DA018C1710F4D2
:100BE000C091DA01E7EBF1E0ADEDB1E080E08C130C
:100BF00059C08C2FDF91CF911F910F91FF90EF90F3
:100C0000DF90CF90BF90AF909F908F90089580918C
:100C1000FF0190910002A0910102B0910202892B84
:100C20008A2B8B2B09F480CF0E94CE018090FF018C
:100C300090900002A0900102B09002026C197D0910
:100C40008E099F0986169706A806B90608F06CCF8C
:100C50008091FE010E945D05C0E0CBCF85EEB1CF53
:100C60008091FF0190910002A0910102B0910202D7
:100C7000892B8A2B8B2B09F4AACF0E94CE010091DD
:100C8000FF011091000220910102309102026C19C3
:100C90007D098E099F09061717072807390708F0ED
:100CA00096CFD6CF91919D938F5FA1CF0895E0917C
:100CB0009F0180919E01E81730F4F0E0E352FE4F6F
:100CC000808190E008958FEF9FEF089590919F01AC
:100CD00080919E012FEF3FEF981748F4E92FF0E045
:100CE000E352FE4F208130E09F5F90939F01C90146
:100CF000089580919E0190919F01891B990B089501
:100D0000CF93DF93CB01EA01642F0E941805CE0137
:100D1000DF91CF910895CF93DF931F92CDB7DEB7C8
:100D2000698361E0CE0101960E94180581E090E0A0
:100D30000F90DF91CF91089590E080E008958F9219
:100D40009F92AF92BF920F931F93CF93DF93CDB734
:100D5000DEB7A1970FB6F894DEBF0FBECDBF19A2C4
:100D6000423008F44AE08E010F5D1F4F842E912C13
:100D7000B12CA12CA50194010E943E0DE62FB901D2
:100D8000CA01EA3044F5E05DD801EE938D01232BD2
:100D9000242B252B79F790E080E0109769F0FD0176
:100DA00001900020E9F73197AF014A1B5B0BBD01B1
:100DB00080EA92E00E94F703A1960FB6F894DEBF96
:100DC0000FBECDBFDF91CF911F910F91BF90AF901C
:100DD0009F908F900895E95CD7CF42E050E069E49E
:100DE00071E080EA92E00C94F703BC0190E080E0AF
:100DF0004AE00C949F0685ED8093BC008091FF0132
:100E000090910002A0910102B09102020796A11DEB
:100E1000B11D23E0B695A795979587952A95D1F7AB
:100E20002091BC0024FD03C01092FD010895409163
:100E3000FF01509100026091010270910202452B66
:100E4000462B472B69F30097A105B10541F025E337
:100E50002A95F1F700000197A109B109E1CF80912E
:100E6000FE010C945D051F920F920FB60F92112494
:100E70002F933F938F939F93AF93BF938091A10143
:100E80009091A201A091A301B091A4013091A00181
:100E900023E0230F2D3758F50196A11DB11D209396
:100EA000A0018093A1019093A201A093A301B0930C
:100EB000A4018091A5019091A601A091A701B091F4
:100EC000A8010196A11DB11D8093A5019093A601D3
:100ED000A093A701B093A801BF91AF919F918F916B
:100EE0003F912F910F900FBE0F901F90189526E8FD
:100EF000230F0296A11DB11DD2CF1F920F920FB6E4
:100F00000F9211248F939F938091E1009091E100C3
:100F1000937F9093E10083FF0FC01092E90091E06E
:100F20009093EB001092EC0092E39093ED001092FE
:100F3000B60198E09093F00082FF22C093E0909376
:100F4000E9009091F200992319F09AE39093E80058
:100F500090919501992341F0909195019150909332
:100F60009501911101C05D9A9091B501992341F0CD
:100F70009091B50191509093B501911101C0289ABB
:100F800084FF18C08091E2008E7E81608093E20031
:100F90008091E1008F7E8093E100809196018E7EAA
:100FA0008061809396019F918F910F900FBE0F905B
:100FB0001F90189580FFF7CF8091E2008E7E8061B0
:100FC0008093E2008091E1008E7E8093E100809129
:100FD00096018E7E8160E5CF1F920F920FB60F9221
:100FE0001124CF92DF92EF92FF920F931F932F93D2
:100FF0003F934F935F936F937F938F939F93AF93A1
:10100000BF93EF93FF93CF93DF93CDB7DEB76C978A
:10101000DEBFCDBF1092E9008091E80083FF25C0BC
:1010200068E0CE0145960E94DF0282EF8093E800DF
:101030008D8987FF39C09091E80090FFFCCF982FF1
:10104000907609F034C19E894F89588D2F89F88C8C
:10105000911131C0803861F5809197018093F10042
:101060001092F1008EEF8093E8006C960FB6F89422
:10107000DEBF0FBECDBFDF91CF91FF91EF91BF914A
:10108000AF919F918F917F916F915F914F913F9120
:101090002F911F910F91FF90EF90DF90CF900F90C5
:1010A0000FBE0F901F9018959EEF9093E800C7CF4A
:1010B0001092F100D5CF913059F48111D3CF413046
:1010C000510581F6809197018D7F80939701CACF5A
:1010D000933049F48111C6CF4130510519F6809102
:1010E00097018260F2CF953041F48091E80080FF53
:1010F000FCCF20682093E300B5CF963009F0A9C05B
:101100000B8D1C8D22E01092E90010929301109239
:101110009201F2122EC010929101109290010E9441
:10112000AE021F8299E09983FA8291E09E8390EA51
:1011300098879AEF99872091920130919301275FC8
:101140003F4F3C832B838D831092E90010929301D3
:1011500010929201109391010093900149E050E0A8
:10116000BE016F5F7F4F80E00E9488020E94AE0246
:1011700079CF10939101009390010E944901DC0105
:1011800012960D911C910115110509F451C1D80158
:10119000ED91FC910480F581E02DBE016B5E7F4FE7
:1011A000C8010995009709F03EC1F8010085118535
:1011B000EACFF3E0FF120EC08F89882309F440C004
:1011C000823061F440E862E187E191E00E945502DB
:1011D000811148CF81E28093EB0047CF813029F421
:1011E00040E862E184E091E0F1CF833099F70E941A
:1011F0004901DC011296ED90FC908E010F5F1F4FAC
:101200006801E114F10479F0D701ED91FC910680B9
:10121000F781E02DB801C7010995080F111DF701ED
:10122000E084F184EECFD8011C92F60101900020F9
:10123000E9F73197BF016C197D0940E0C601C6CFBF
:101240006EEE70E0FB01449150E080E80E9488025D
:1012500009CF973009F4BECF983021F481E0809314
:10126000F10000CF993009F0FDCE837009F0B2CFC4
:10127000EDE0F1E081E031E096E32191222371F08D
:101280008093E9003093EB00DF0111972C912093BC
:10129000EC009093ED008F5F873079F78EE78093B5
:1012A000EA001092EA008F898093B601DBCE8B8D25
:1012B0009C8D1092E90010929301109292019093EC
:1012C000910180939001898D811192C08E899D89B1
:1012D000913A49F4813209F07DCF47E050E064E073
:1012E00071E080E0B3CF913209F074CF833269F4BA
:1012F0008F89988DB0E0A0E0809300019093010168
:10130000A0930201B0930301ADCE803269F48091C5
:10131000E80082FFFCCF67E084E091E00E94DF02FA
:101320008BEF8093E8009ECE823209F09BCE8F89AE
:1013300080930B01EEEFFFE7859194918B3F9C4DDD
:1013400051F1E0E0F8E08091040190910501A09155
:101350000601B0910701803B9440A105B105F1F46D
:1013600080910B0180FD1AC0EE3F8AE0F80789F5F5
:1013700087E797E791838083809160008093940151
:1013800088E19BE00FB6F894A895809360000FBEAB
:101390009093600067CEEEEFFAE0D5CF8081918127
:1013A0008737974709F05ECEA895809160008861E5
:1013B000809360008091940180936000EE3F2AE06A
:1013C000F20789F08091FE0A9091FF0A9183808351
:1013D00049CE808191818737980751F29093FF0A17
:1013E0008093FE0AC5CF1092FF0A1092FE0A3ACEF1
:1013F0000E944901DC0112960D911C910115110505
:1014000009F4E8CED801ED91FC910190F081E02D36
:10141000BE016B5E7F4FC8010995811123CEF80193
:1014200000851185EBCF181619060CF41BCED2CE11
:10143000F1E0FF12BECE62EF70E004CF1F920F9278
:101440000FB60F9211242F933F934F935F936F9397
:101450007F938F939F93AF93BF93EF93FF9383E01B
:1014600092E00E946A03FF91EF91BF91AF919F912B
:101470008F917F916F915F914F913F912F910F903D
:101480000FBE0F901F9018951F920F920FB60F92DC
:1014900011242F938F939F93EF93FF93E091130267
:1014A000F09114028081E0911902F0911A0282FDFC
:1014B0001BC0908180911C028F5F8F7320911D0251
:1014C000821741F0E0911C02F0E0ED5FFD4F958F37
:1014D00080931C02FF91EF919F918F912F910F901C
:1014E0000FBE0F901F9018958081F4CF1F920F921E
:1014F0000FB60F9211242F933F934F935F936F93E7
:101500007F938F939F93AF93BF93EF93FF938091BC
:10151000B900887F803609F44AC0F0F5883209F4B2
:10152000A7C018F5803109F49BC0B8F4882309F4EA
:10153000F9C0883009F494C0FF91EF91BF91AF9149
:101540009F918F917F916F915F914F913F912F91DB
:101550000F900FBE0F901F901895883109F488C026
:10156000803251F78093DB0114C0803409F49DC0B0
:1015700040F48033B9F38833F9F68093DB0185ECCE
:10158000B0C0803509F485C0883509F496C0883428
:1015900099F60E94FB06D0CF883909F48CC038F543
:1015A000883729F050F4883611F0803729F683E027
:1015B0008093FD0110928F0157C0883809F47BC0D9
:1015C000803919F0803809F0B7CF80918F018032CF
:1015D00008F071C0E0918F0181E08E0F80938F0140
:1015E0008091BB00F0E0E159FE4F80833DC0803B1D
:1015F00039F0E0F4803A09F479C0883A09F09CCFD8
:1016000084E08093FD0110926E0110926D01E091D3
:101610009A01F0919B01099580916D0181110FC094
:1016200081E080936D0110924D0109C0803C09F466
:10163000A6CF883C09F4A3CF883B09F07DCFE09189
:101640006E0181E08E0F80936E01F0E0E35BFE4F50
:1016500080818093BB0090916E0180916D0129C0C3
:101660008091D8018093BB0085EC8093BC0064CF4F
:101670009091DA018091D901981758F5E091DA013B
:1016800081E08E0F8093DA01F0E0E954FE4F808113
:10169000E9CFE091DA0181E08E0F8093DA01809149
:1016A000BB00F0E0E954FE4F80839091DA01809115
:1016B000D9019817C8F285E8D8CFE091DA0181E026
:1016C0008E0F8093DA018091BB00F0E0E954FE4F69
:1016D00080838091DC0181115CCF81E08093D70110
:1016E00084EA8093BC001092FD0126CF85EC8093A4
:1016F000BC001092FD0180918F01803230F4E091A6
:101700008F01F0E0E159FE4F108260918F0170E08F
:10171000E0919801F09199018FE691E0099510927E
:101720008F010ACF1092DB0134CFE3E0F2E01382A5
:10173000128288EE93E0A0E0B0E084839583A683D4
:10174000B78327E131E0318320832DEC30E035870A
:1017500024872CEC30E03787268728EC30E0318B6B
:10176000208B29EC30E0338B228B2AEC30E0358B58
:10177000248B2EEC30E0378B268B118E128E138E3D
:10178000148EE0EAF2E01382128284839583A683AA
:10179000B78329E231E0318320832FEF3FEF358794
:1017A0002487E0EFF2E01382128284839583A6837C
:1017B000B7838BE391E09183808310920C030895AB
:1017C000CF93DF93CDB7DEB760970FB6F894DEBF47
:1017D0000FBECDBF789484B5826084BD84B581602E
:1017E00084BD85B5826085BD85B5816085BD8091EC
:1017F0006E00816080936E00109281008091810064
:10180000826080938100809181008160809381005B
:10181000809180008160809380008091910082603F
:1018200080939100809191008160809391008091DC
:1018300090008160809390008091C10084608093CB
:10184000C1008091C10082608093C1008091C1007D
:1018500081608093C1008091C30081608093C30048
:101860008091C00082608093C0008091C20081603E
:101870008093C20080917A00846080937A00809186
:101880007A00826080937A0080917A0081608093F0
:101890007A0080917A00806880937A001092B60175
:1018A00010929701109296018091D70081608093E9
:1018B000D70080EA8093D80089B5806189BD89B559
:1018C000826089BD09B400FEFDCF61E070E080E078
:1018D00090E00E94F3018091D8008F7C806180931A
:1018E000D8008091E000807F8093E0008091E1004B
:1018F0008E7E8093E1008DE08093E200559A209ADD
:101900008FEF9FEF9093AD028093AC0268EE73E08F
:1019100080E090E00E94F30110929F0110929E01DE
:1019200010929D0110929C010E943F0585E292E079
:1019300090939B0180939A0186E292E090939901A3
:101940008093980188E48093B8008AE291E00E9435
:1019500092040E94ED0683EE282E83E0382E2E019D
:1019600081E1480E511C61E070E080E090E00E944F
:10197000F3018BE891E00197F1F741E061E082E14A
:101980000E947E0510929F0180939E01813009F094
:1019900068C080EF92E00E946606882309F461C067
:1019A000682F70E090E080E04AE00E949F060E946D
:1019B000ED06C1010197F1F741E060E182E10E948B
:1019C0007E0510929F0180939E01803109F049C0ED
:1019D0008E010F5F1F4F80EF92E00E946606F801B4
:1019E00081938F01E415F505B1F70D811E818F807C
:1019F0009884A984BA84CB84DC84ED84FE846F84CB
:101A0000788882E591E00E949204C4010E94F50664
:101A10008CE491E00E949204C5010E94F50687E4DF
:101A200091E00E949204C6010E94F50682E491E0D2
:101A30000E949204C7010E94F5068CE391E00E9487
:101A40009204C8010E94F50685E391E00E94920489
:101A5000C3010E94F50683E391E00E9492040E9474
:101A6000ED0680E090E0892B09F47DCF0E945603BB
:101A7000882309F478CF0E94000075CFA1E21A2EC6
:101A8000AA1BBB1BFD010DC0AA1FBB1FEE1FFF1F22
:101A9000A217B307E407F50720F0A21BB30BE40B72
:101AA000F50B661F771F881F991F1A9469F76095B9
:101AB0007095809590959B01AC01BD01CF01089573
:101AC000EE0FFF1F0590F491E02D0994F894FFCFDD
:101AD000FFFFFFFF00E100000000000000C1808167
:101AE000000000000000008B03EC021903D7034A3A
:101AF0000328033C03000000007C04F703B804AD96
:101B000004FE04BC04DA04000000008B0680069C7E
:0C1B10000656067906660657060D0A0008
:00000001FF
