:100000000C94E9000C9491090C946A090C9443092E
:100010000C941C090C9411010C9411010C94F5081A
:100020000C9411010C94590C0C94B8090C94270AE7
:100030000C9411010C9411010C9411010C941101F8
:100040000C9411010C9411010C9411010C941101E8
:100050000C9411010C9411010C9411010C94AB0837
:100060000C9411010C9411010C9411010C941101C8
:100070000C9411010C9411010C9411010C941101B8
:100080000C9411010C9411010C9411010C941101A8
:100090000C9411010C9411010C9411010C94110198
:1000A0000C9411010C9411010C94110105A84CCD74
:1000B000B2D44EB93836A9020C50B9918688083CA2
:1000C000A6AAAA2ABE000000803F0000000025006A
:1000D00028002B002E003100000000002400270023
:1000E0002A002D0030000000000023002600290017
:1000F0002C002F000404040404030405020202027D
:1001000004030202020206060606060604040202B0
:100110000204040408020110408040102040804086
:10012000800802040180402010020110801020404D
:1001300040200000000200090F0000030401000C31
:1001400000000000000000000000000000000000AF
:1001500000080B0002020200000904000001020274
:1001600000000524001001052401010104240206F9
:100170000524060001070581031000400904010061
:10018000020A000000070502024000000705830282
:100190004000000403090412010002EF020140FBC9
:1001A0001F0023000101020301506F6C6F6C75206A
:1001B000436F72706F726174696F6E00506F6C6F15
:1001C0006C7520412D537461722033325534000018
:1001D000D50C11241FBECFEFDAE0DEBFCDBF11E09A
:1001E000A0E0B1E0E8EAF2E202C005900D92A43688
:1001F000B107D9F722E0A4E6B1E001C01D92AE320A
:10020000B207E1F710E0C9EED0E004C02197FE018B
:100210000E94790EC83ED107C9F70E94090D0C94BF
:1002200052110C940000FC0180919B01882311F174
:100230003FB7F89482E08093E9002091F200822F8A
:1002400090E01816190614F481E090E0882339F044
:10025000289844E640939A014091F100408322237C
:1002600039F02091F200211103C02BE62093E80021
:100270003FBF08958FEF9FEF08952FB7F89483E065
:100280008093E9009091E800892F807295FF04C067
:100290009091F20080E4891B2FBF08958091920114
:1002A00081110DC082E080938E0184E080938F01E4
:1002B000109291011092900181E0809392018EE85A
:1002C00091E008953FB7F89480918A0190918B0155
:1002D000A0918C01B0918D0126B5A89B05C02F3F40
:1002E00019F00196A11DB11D3FBFBA2FA92F982F5C
:1002F0008827BC01CD01620F711D811D911D42E057
:10030000660F771F881F991F4A95D1F70895CF92DE
:10031000DF92EF92FF920E9462016B017C010E94CA
:1003200062016C197D098E099F09683E7340810541
:100330009105A8F3FF90EF90DF90CF9008952FB72D
:10034000F894609186017091870180918801909165
:1003500089012FBF0895089540917D0150917E013C
:1003600020917B0130917C0142175307B4F49091A6
:10037000E8009570E1F39091E80092FD19C0809338
:10038000F10080917D0190917E0101968F739927F4
:10039000892B19F48EEF8093E80080917D01909174
:1003A0007E01019690937E0180937D0181E0089506
:1003B00080E00895EF92FF920F931F93CF93DF9306
:1003C000F82E192FE62E042F81E0860F880F0E9449
:1003D000AC0183E00E94AC01CF2DD12FEC0EFD2E9D
:1003E000F11CCE15DF05B9F007FF13C0FE018491A3
:1003F0000E94AC01182F80E00E94AC01812321965D
:100400008111EFCFDF91CF911F910F91FF90EF906E
:1004100008958881EDCF81E0F5CFDF92EF92FF92D2
:100420000F931F93CF93DF93D82E8A01EB017B01AB
:10043000E40EF51ECE15DF0559F0D7FE12C0FE0101
:1004400084910E94AC0121968111F4CF0FEF1FEF30
:10045000C801DF91CF911F910F91FF90EF90DF9036
:1004600008958881EECF0F931F93CF93DF931F9250
:10047000CDB7DEB782E0898342E450E061E571E008
:1004800080E80E940D020E944E01DC0112960D913F
:100490001C910115110589F0D801ED91FC910280A4
:1004A000F381E02DBE016F5F7F4FC801099597FD75
:1004B00004C0F80100851185ECCF89810F90DF9190
:1004C000CF911F910F910895615030F02091F1006C
:1004D000FC0120830196F8CF289884E680939A0146
:1004E00008958F929F92AF92BF92CF92DF92EF9238
:1004F000FF920F931F93CF93DF936C017B018A01CF
:1005000080910B01882309F458C080919B018823B6
:1005100009F453C08091810180FF05C08091E00003
:1005200082608093E000E801B12C8AEFA82E93E06E
:10053000892E2AE3922E209711F4BB20B9F10E9454
:100540003D01811106C0AA94AA20B9F10E94870139
:10055000F2CF8C171D0611F00CF08C2F9FB7F8947A
:100560008092E9002091E80025FD02C09FBFE3CF03
:10057000282F30E0C21BD30BF701815020F04191AE
:100580004093F100FACFE20EF31EBB2021F09092CF
:10059000E800B12CEBCF8091E80085FDE7CF909289
:1005A000E800BB24B394209709F3F3CF5D9884E669
:1005B00080938001101611063CF081E090E0F60176
:1005C0009383828310E000E0C801DF91CF911F91F7
:1005D0000F91FF90EF90DF90CF90BF90AF909F90E2
:1005E0008F900895CF93DF931F92CDB7DEB76983C5
:1005F000DC01ED91FC910280F381E02D41E050E0BF
:10060000BE016F5F7F4F09950F90DF91CF910895E5
:1006100083E08093E9008091F200882319F08AE357
:100620008093E80008950E943D0190E00895CF93E3
:10063000DF931F92CDB7DEB7FC018485958597FDCA
:1006400008C02FEF3FEF358724870F90DF91CF91C0
:100650000895CE0101960E941301019719F4898132
:1006600090E0F3CF8FEF9FEFF0CF0F931F93CF93D7
:10067000DF931F92CDB7DEB78C01FC018485958591
:1006800097FF0BC0CE0101960E941301019771F4F0
:10069000898190E0F80195878487F80184859585A4
:1006A0000F90DF91CF911F910F9108958FEF9FEFE2
:1006B000F1CFFC018485958597FD0BC09FB7F89419
:1006C00082E08093E9008091F2009FBF90E0019664
:1006D00008959FB7F89482E08093E9008091F2003A
:1006E0009FBF90E008952E98269A2D98259A2A98D3
:1006F000229A2998219A2F98279A8AEA8093800033
:1007000089E18093810084EA91E09093870080934F
:100710008600109289001092880010928B0010922F
:100720008A0010928D0010928C0008950F931F93F1
:10073000CF93DF938C01EB0180916A01811105C099
:1007400081E080936A010E94730380E017FF04C078
:1007500011950195110981E00D3291E0190714F00E
:100760000CE211E010938B0000938A00882329F19A
:100770002A9A229A80916A01811105C081E08093B2
:100780006A010E94730380E0D7FF04C0D195C19530
:10079000D10981E0CD3291E0D90714F0CCE2D1E06B
:1007A000D0938900C0938800882349F0299A219A20
:1007B000DF91CF911F910F9108952A98DACF299850
:1007C000F6CF70E060E090E080E00E9496030E9427
:1007D0009F01EAE0F2E06487758786879787108239
:1007E0001182128213821482158216821782108659
:1007F00011861286138608958CB1282F30E0359526
:10080000279535952795422F417083B190E054E0AC
:10081000959587955A95E1F7822781702091680117
:10082000909169016091AB017091AC0124279827E8
:10083000291B330B260F371F3093AC012093AB01DC
:100840002091680190916901281729F0941719F0F7
:1008500091E0909367018093680140936901089546
:100860009FB191708CB186FB882780F989272091F0
:100870006501309166014091A8015091A901292795
:100880003827231B330B240F351F3093A9012093E6
:10089000A8013091650120916601381729F02917C8
:1008A00019F021E020936401809365019093660123
:1008B000089524982C9A6A98729A6E98769A8098DD
:1008C000889AF89491E090936800EBE6F0E08081DC
:1008D000806180832CEF33E03093740120937301A7
:1008E0009BBB809109028F7E8093090283B1909116
:1008F00009028071892B80930902789480E394E047
:100900009093150180931401EAE6F0E080818F7CDA
:1009100080618083EE9A8CB182FB882780F9809376
:10092000690193B1809169019295917089278093B3
:1009300068011092AC011092AB01109267018FB167
:100940008170809366019CB18091660196FB992726
:1009500090F98927809365011092A9011092A8014E
:10096000109264010895CF93DF93DC0118968C9167
:100970001897811135C019962C91199730E0F9011B
:10098000ED5EFE4F2C503F4F81E018968C931897E8
:100990001A968C911A97882309F451C08491F90111
:1009A00024912223C9F030E0220F331FF901E852CD
:1009B000FF4F45915491F901E653FF4FC591D491F2
:1009C0002FB7F894FA013081982F90959323908354
:1009D000E881E82BE8832FBF8FE090E00197F1F7E3
:1009E00019962C91199730E0F901EE5CFE4F849135
:1009F000F901ED5EFE4F94912C503F4FF901249187
:100A0000222309F483C0882309F43EC081508F302B
:100A100008F03AC0E82FF0E0E05FFA4F0C94790E4E
:100A2000610565053F0559055D0544054405440517
:100A300068056E05720576057C0544058005849180
:100A4000F9012491222309F4C7CF30E0220F331F8C
:100A5000F901E852FF4F45915491F901E653FF4FD8
:100A6000C591D4912FB7F894FA019081382F309521
:100A7000892F832380838881E32FE823ABCF809164
:100A800080008F7780938000E22FF0E0EE0FFF1F51
:100A9000EA51FF4FC591D491E8819E2331E009F4DA
:100AA00030E0832F1B962C9182278170DF91CF91AC
:100AB0000895809180008F7DE5CF80918000877FB1
:100AC000E1CF84B58F7784BDDFCF84B58F7DFBCF39
:100AD000809190008F7780939000D6CF8091900086
:100AE0008F7DF9CF80919000877FF5CF8091C000F6
:100AF0008F778093C000C8CF8091C0008F7DF9CFE1
:100B00008091C200877F8093C200BECF80E0CACFB1
:100B1000CF92DF92EF92FF92CF93DF93EC01288187
:100B200039814A815B81688579858A859B850E94A8
:100B3000F60E6B017C016091AF017091B001809164
:100B4000AD019091AE01681B790B072E000C880B4C
:100B5000990B0E94A00F9B01AC01C701B6010E9436
:100B600094106B017C016C857D85072E000C880B31
:100B7000990B0E94A00F20E030E04AE754E40E9465
:100B8000F60E9B01AC01C701B6010E94F60EDF9183
:100B9000CF91FF90EF90DF90CF900895CF92DF92AA
:100BA000EF92FF92CF93DF93EC01288139814A8144
:100BB0005B81688579858A859B850E94F60E6B012D
:100BC0007C016091B3017091B4018091B101909169
:100BD000B201681B790B072E000C880B990B0E9441
:100BE000A00F9B01AC01C701B6010E9494106B01DC
:100BF0007C016C857D85072E000C880B990B0E946B
:100C0000A00F20E030E04AE754E40E94F60E9B017A
:100C1000AC01C701B6010E94F60EDF91CF91FF90A3
:100C2000EF90DF90CF9008954F925F926F927F92F6
:100C30008F929F92AF92BF92CF92DF92EF92FF92EC
:100C4000CF93DF93CDB7DEB764970FB6F894DEBFCE
:100C50000FBECDBF6D837E838F83988729873A87A8
:100C60004B875C870E949F016B017C018091B501DD
:100C70009091B601A091B701B091B801B701A6015A
:100C8000481B590B6A0B7B0B8091420190914301E9
:100C9000092E000CAA0BBB0B481759076A077B07E4
:100CA00008F48CC18091B3019091B4019093B2018A
:100CB0008093B1018091AF019091B0019093AE010A
:100CC0008093AD018091AA01811105C081E08093DC
:100CD000AA010E945904F8948091AB019091AC0153
:100CE00078949093B4018093B3018091AA0181110B
:100CF00005C081E08093AA010E945904F894809174
:100D0000A8019091A90178949093B0018093AF01CC
:100D10000E949F01C092B501D092B601E092B70146
:100D2000F092B80186E391E00E94CE059B01AC01F0
:100D30006D817E818F8198850E947F0E2B013C0101
:100D400086E391E00E9488059B01AC0169857A8564
:100D50008B859C850E947F0E4B015C0120912C01AC
:100D600030912D0140912E0150912F01C301B2010C
:100D70000E94800E698B7A8B8B8B9C8B60932C01ED
:100D800070932D0180932E0190932F0120913001BB
:100D9000309131014091320150913301C501B401CC
:100DA0000E94800E6B017C01C0923001D092310113
:100DB000E0923201F092330180912401909125015B
:100DC000A0912601B091270189839A83AB83BC83CC
:100DD0008091280190912901A0912A01B0912B01C5
:100DE0008D879E87AF87B88B29813A814B815C8143
:100DF000C501B4010E9494104B015C012D853E8514
:100E00004F855889C701B6010E9494109B01AC011F
:100E1000C501B4010E94800E0E94680F6B012981F8
:100E20003A814B815C81C301B2010E9494104B0155
:100E30005C012D853E854F85588969897A898B8922
:100E40009C890E9494109B01AC01C501B4010E94D1
:100E5000800E0E94680FCB01B6010E9496030E948B
:100E60009F0160931A0270931B0280931C0290935F
:100E70001D02C0901602D0901702E0901802F09068
:100E800019026C197D098E099F096233710581056C
:100E9000910508F493C086E191E00E94CE056B01B4
:100EA0007C0186E191E00E9488059B01AC01C701AD
:100EB000B6010E947F0E6B017C0120E030E0A901A9
:100EC0000E948F1018160CF08EC091E09D8720E0D4
:100ED00030E040E251E4C701B6010E948F101816BD
:100EE0000CF01D8629853A854B855C856D817E8158
:100EF0008F8198850E94800E20E030E040E05FE323
:100F00000E9494106B017C018090A4019090A50137
:100F1000A090A601B090A7014090A0015090A1011F
:100F20006090A2017090A30180919C0190919D011D
:100F3000A0919E01B0919F0189839A83AB83BC836A
:100F40009D85992309F45CC0C501B4010E94F10E8E
:100F50009B01AC01C701B6010E949410A30192014C
:100F60000E94800E2DEC3CEC4CE45DE30E94800E70
:100F70006093A0017093A1018093A2019093A301BB
:100F8000C501B4010E9401119B01AC01C701B6016A
:100F90000E94941029813A814B815C810E94800ECD
:100FA0002DEC3CEC4CE45DE30E94800E60939C01D0
:100FB00070939D0180939E0190939F0164960FB65C
:100FC000F894DEBF0FBECDBFDF91CF91FF90EF90C1
:100FD000DF90CF90BF90AF909F908F907F906F9059
:100FE0005F904F90089520E030E040E251ECC7015F
:100FF000B6010E94EC0E881F8827881F8D8772CF4C
:1010000029853A854B855C856D817E818F819885A8
:101010000E947F0E23ED3DE442E15EE30E94F60E66
:101020002DEC3CEC4CE45DE30E949410A50194018E
:101030000E94800E4B015C018092A4019092A50158
:10104000A092A601B092A7010E94F10E9B01AC01F3
:10105000C701B6010E9494102DEC3CEC4CE45DE31A
:101060000E949410A30192010E94800E6093A0013F
:101070007093A1018093A2019093A301C501B401D3
:101080000E9401119B01AC01C701B6010E9494109E
:101090002DEC3CEC4CE45DE30E94941029813A81F4
:1010A0004B815C8181CFEF92FF920F931F93CF937F
:1010B000DF9370E060E090E080E00E949603609132
:1010C000340170913501072E000C880B990B0E949A
:1010D000A00F20E030E040E05FE30E9494100E9407
:1010E000680FEB010091B3011091B401EE24FF24CD
:1010F000E01AF10AA80117FDA7018091B3019091B0
:10110000B40197FF03C09195819591099A01281B1D
:10111000390B121613061CF09C01241B350BC21749
:10112000D3075CF020E030E048E452E460E070E097
:1011300088E492EC0E941406DDCF70E060E090E05D
:1011400080E00E94960381E0DF91CF911F910F9183
:10115000FF90EF9008951F920F920FB60F921124F7
:101160002F933F938F939F93AF93BF93809186016B
:1011700090918701A0918801B091890130918501FA
:1011800023E0230F2D3758F50196A11DB11D2093A3
:1011900085018093860190938701A0938801B09385
:1011A000890180918A0190918B01A0918C01B0916D
:1011B0008D010196A11DB11D80938A0190938B0131
:1011C000A0938C01B0938D01BF91AF919F918F91AE
:1011D0003F912F910F900FBE0F901F90189526E80A
:1011E000230F0296A11DB11DD2CF1F920F920FB6F1
:1011F0000F9211242F933F934F935F936F937F939D
:101200008F939F93AF93BF93EF93FF93E09114015C
:10121000F09115010995FF91EF91BF91AF919F91C9
:101220008F917F916F915F914F913F912F910F908F
:101230000FBE0F901F9018951F920F920FB60F922E
:1012400011242F933F934F935F936F937F938F93CB
:101250009F93AF93BF93EF93FF93E0911201F091AF
:1012600013010995FF91EF91BF91AF919F918F91DC
:101270007F916F915F914F913F912F910F900FBE92
:101280000F901F9018951F920F920FB60F92112476
:101290002F933F934F935F936F937F938F939F937E
:1012A000AF93BF93EF93FF93E0911001F091110181
:1012B0000995FF91EF91BF91AF919F918F917F9190
:1012C0006F915F914F913F912F910F900FBE0F90B3
:1012D0001F9018951F920F920FB60F9211242F9303
:1012E0003F934F935F936F937F938F939F93AF93AE
:1012F000BF93EF93FF93E0910E01F0910F010995D9
:10130000FF91EF91BF91AF919F918F917F916F91DD
:101310005F914F913F912F910F900FBE0F901F90B3
:1013200018951F920F920FB60F9211242F933F938F
:101330004F935F936F937F938F939F93AF93BF93DD
:10134000EF93FF93E0910C01F0910D010995FF914E
:10135000EF91BF91AF919F918F917F916F915F912D
:101360004F913F912F910F900FBE0F901F901895A6
:101370001F920F920FB60F9211248F939F9380911B
:10138000E1009091E100937F9093E10083FF0FC013
:101390001092E90091E09093EB001092EC0092E340
:1013A0009093ED0010929B0198E09093F00082FFE3
:1013B00022C093E09093E9009091F200992319F0F4
:1013C0009AE39093E80090918001992341F09091E5
:1013D0008001915090938001911101C05D9A90918C
:1013E0009A01992341F090919A01915090939A011A
:1013F000911101C0289A84FF18C08091E2008E7E6E
:1014000081608093E2008091E1008F7E8093E10013
:10141000809181018E7E8061809381019F918F9167
:101420000F900FBE0F901F90189580FFF7CF8091FF
:10143000E2008E7E80618093E2008091E1008E7EEA
:101440008093E100809181018E7E8160E5CF1F92C3
:101450000F920FB60F921124CF92DF92EF92FF926C
:101460000F931F932F933F934F935F936F937F93AC
:101470008F939F93AF93BF93EF93FF93CF93DF939C
:10148000CDB7DEB76C97DEBFCDBF1092E90080917B
:10149000E80083FF25C068E0CE0145960E94640203
:1014A00082EF8093E8008D8987FF39C09091E80032
:1014B00090FFFCCF982F907609F034C19E894F8918
:1014C000588D2F89F88C911131C0803861F5809149
:1014D00082018093F1001092F1008EEF8093E8007A
:1014E0006C960FB6F894DEBF0FBECDBFDF91CF91E3
:1014F000FF91EF91BF91AF919F918F917F916F91EC
:101500005F914F913F912F911F910F91FF90EF901D
:10151000DF90CF900F900FBE0F901F9018959EEF09
:101520009093E800C7CF1092F100D5CF913059F4D5
:101530008111D3CF4130510581F6809182018D7F99
:1015400080938201CACF933049F48111C6CF4130D4
:10155000510519F6809182018260F2CF953041F4F5
:101560008091E80080FFFCCF20682093E300B5CF96
:10157000963009F0A9C00B8D1C8D22E01092E90075
:1015800010927E0110927D01F2122EC010927C0109
:1015900010927B010E9433021F8299E09983FA82A4
:1015A00091E09E8390EA98879AEF998720917D0138
:1015B00030917E01275F3F4F3C832B838D831092B8
:1015C000E90010927E0110927D0110937C0100933E
:1015D0007B0149E050E0BE016F5F7F4F80E00E94D9
:1015E0000D020E94330279CF10937C0100937B019E
:1015F0000E944E01DC0112960D911C9101151105FE
:1016000009F451C1D801ED91FC910480F581E02DE0
:10161000BE016B5E7F4FC8010995009709F03EC17E
:10162000F80100851185EACFF3E0FF120EC08F8923
:10163000882309F440C0823061F440E862E18CEB19
:1016400091E00E94DA01811148CF81E28093EB00A2
:1016500047CF813029F440E862E189EA91E0F1CF97
:10166000833099F70E944E01DC011296ED90FC90B8
:101670008E010F5F1F4F6801E114F10479F0D7016B
:10168000ED91FC910680F781E02DB801C701099525
:10169000080F111DF701E084F184EECFD8011C92F0
:1016A000F60101900020E9F73197BF016C197D091F
:1016B00040E0C601C6CF63E971E0FB01449150E010
:1016C00080E80E940D0209CF973009F4BECF983010
:1016D00021F481E08093F10000CF993009F0FDCE34
:1016E000837009F0B2CFE5E4F1E081E031E096E308
:1016F0002191222371F08093E9003093EB00DF0108
:1017000011972C912093EC009093ED008F5F873020
:1017100079F78EE78093EA001092EA008F89809330
:101720009B01DBCE8B8D9C8D1092E90010927E0187
:1017300010927D0190937C0180937B01898D8111B2
:1017400092C08E899D89913A49F4813209F07DCF0A
:1017500047E050E064E071E080E0B3CF913209F0FF
:1017600074CF833269F48F89988DB0E0A0E08093C4
:10177000000190930101A0930201B0930301ADCE4B
:10178000803269F48091E80082FFFCCF67E084E05A
:1017900091E00E9464028BEF8093E8009ECE82323B
:1017A00009F09BCE8F8980930B01EEEFFFE78591C7
:1017B00094918B3F9C4D51F1E0E0F8E08091040161
:1017C00090910501A0910601B0910701803B9440E2
:1017D000A105B105F1F480910B0180FD1AC0EE3F27
:1017E0008AE0F80789F587E797E7918380838091FE
:1017F000600080937F0188E19BE00FB6F894A89584
:10180000809360000FBE9093600067CEEEEFFAE029
:10181000D5CF808191818737974709F05ECEA89513
:101820008091600088618093600080917F01809347
:101830006000EE3F2AE0F20789F08091FE0A909165
:10184000FF0A9183808349CE8081918187379807F1
:1018500051F29093FF0A8093FE0AC5CF1092FF0ABF
:101860001092FE0A3ACE0E944E01DC0112960D91B2
:101870001C910115110509F4E8CED801ED91FC91F8
:101880000190F081E02DBE016B5E7F4FC80109958C
:10189000811123CEF80100851185EBCF18161906AA
:1018A0000CF41BCED2CEF1E0FF12BECE67E971E0A0
:1018B00004CF1F920F920FB60F9211242F933F93D4
:1018C0004F935F936F937F938F939F93AF93BF9348
:1018D000EF93FF93CF93DF9300D01F92CDB7DEB786
:1018E00083B1898389819091090289278A838091B4
:1018F0006B009A8189238B838B8180FF05C0E091E7
:101900006B01F0916C0109958B8181FF05C0E0911D
:101910006D01F0916E0109958B8182FF05C0E09108
:101920006F01F091700109958B8183FF05C0E091F3
:101930007101F091720109958B8184FF05C0E091DE
:101940007301F091740109958B8185FF05C0E091C9
:101950007501F091760109958B8186FF05C0E091B4
:101960007701F091780109958B8187FF05C0E0919F
:101970007901F0917A0109958981809309020F908C
:101980000F900F90DF91CF91FF91EF91BF91AF91A9
:101990009F918F917F916F915F914F913F912F9187
:1019A0000F900FBE0F901F901895E9EBF1E0138296
:1019B000128288EE93E0A0E0B0E084839583A68352
:1019C000B7838FE491E0918380838FEF9FEF9587BA
:1019D000848783B18093090283ED9DE4A2E1BEE395
:1019E00080931E0290931F02A0932002B0932102C5
:1019F0000E949F01E2E2F2E01282158210868EE0E0
:101A0000818781E08287838781E691E0918380836B
:101A10000895789484B5826084BD84B5816084BD66
:101A200085B5826085BD85B5816085BD80916E007C
:101A3000816080936E0010928100809181008260AD
:101A400080938100809181008160809381008091EA
:101A500080008160809380008091910082608093FB
:101A6000910080919100816080939100809190001D
:101A70008160809390008091C10084608093C10058
:101A80008091C10082608093C1008091C10081601B
:101A90008093C1008091C30081608093C3008091D6
:101AA000C00082608093C0008091C20081608093FA
:101AB000C20080917A00846080937A0080917A00DD
:101AC000826080937A0080917A00816080937A00AE
:101AD00080917A00806880937A0010929B01109226
:101AE0008201109281018091D70081608093D7009C
:101AF00080EA8093D80089B5806189BD89B582600C
:101B000089BD09B400FEFDCF0E9487018091D800F5
:101B10008F7C80618093D8008091E000807F8093EB
:101B2000E0008091E1008E7E8093E1008DE0809363
:101B3000E200559A209A0E949F01609316027093CA
:101B40001702809318029093190210920A021092C1
:101B50000B0210920C0210920D0210920E021092C3
:101B60000F021092100210921102109212021092A3
:101B700013021092140210921502EE24E394C0E0B6
:101B8000D0E0DD24D39482E0C82E93E0B92E01E0AA
:101B900010E08091830190918401009741F00197BA
:101BA00009F452C02097A9F30E940000F2CF82E20C
:101BB00092E00E94B304F82EFE240E949F0120911F
:101BC0002702213099F048F0223009F1233041F109
:101BD000109284011092830134C0F110F9CF7093F8
:101BE000290260932802D0922702F2CFFF2019F039
:101BF00010922702EDCF2091280230912902621B1A
:101C0000730B6F30710520F3C0922702E1CFFF20E4
:101C1000F9F27093290260932802B0922702D8CF7C
:101C2000FF2091F32091280230912902621B730B4F
:101C30006F30710568F210922702109384010093AF
:101C400083010E94E103AECF70E060E090E080E0AD
:101C50000E9496030E949F012B013C010E949F015C
:101C600064197509860997096137774181059105DE
:101C700058F420E030E046EE52E460E070E088E2A4
:101C800092E40E941406EACF70E060E090E080E009
:101C90000E9496030E94530870E060E090E080E0AC
:101CA0000E9496030E949F012B013C010E949F010C
:101CB0006419750986099709613177428105910593
:101CC00048F420E030E040EF51E4CA01B9010E943D
:101CD0001406ECCF70E060E090E080E00E94960394
:101CE0000E9453080E94E103109284011092830124
:101CF00059CFEE0FFF1F0590F491E02D0994505835
:101D0000BB27AA270E94970E0C9441100E9408102E
:101D100038F00E940F1020F039F49F3F19F426F498
:101D20000C9405100EF4E095E7FB0C94FF0FE92FDF
:101D30000E94661058F3BA17620773078407950765
:101D400020F079F4A6F50C9488100EF4E0950B2E93
:101D5000BA2FA02D0B01B90190010C01CA01A001FD
:101D60001124FF27591B99F0593F50F4503E68F158
:101D70001A16F040A22F232F342F4427585FF3CF99
:101D8000469537952795A795F0405395C9F77EF46A
:101D90001F16BA0B620B730B840BBAF09150A1F0B3
:101DA000FF0FBB1F661F771F881FC2F70EC0BA0F39
:101DB000621F731F841F48F4879577956795B795C1
:101DC000F7959E3F08F0B0CF9395880F08F09927BC
:101DD000EE0F9795879508950E94DB0F08F481E038
:101DE00008950E941810E3950C9452100E940A0F57
:101DF0000C9441100E940F1058F00E94081040F0FF
:101E000029F45F3F29F00C94FF0F51110C948910B5
:101E10000C9405100E94661068F39923B1F35523C2
:101E200091F3951B550BBB27AA27621773078407ED
:101E300038F09F5F5F4F220F331F441FAA1FA9F383
:101E400035D00E2E3AF0E0E832D091505040E69571
:101E5000001CCAF72BD0FE2F29D0660F771F881FD2
:101E6000BB1F261737074807AB07B0E809F0BB0BC5
:101E7000802DBF01FF2793585F4F3AF09E3F5105D9
:101E800078F00C94FF0F0C9489105F3FE4F3983EB8
:101E9000D4F3869577956795B795F7959F5FC9F7C2
:101EA000880F911D9695879597F90895E1E0660F43
:101EB000771F881FBB1F621773078407BA0720F0BC
:101EC000621B730B840BBA0BEE1F88F7E095089525
:101ED0000E946F0F6894B1110C94891008950E94AC
:101EE0006E1088F09F5798F0B92F9927B751B0F02E
:101EF000E1F0660F771F881F991F1AF0BA95C9F78E
:101F000014C0B13091F00E948810B1E008950C9493
:101F10008810672F782F8827B85F39F0B93FCCF346
:101F2000869577956795B395D9F73EF4909580950A
:101F3000709561957F4F8F4F9F4F0895E89409C02A
:101F400097FB3EF490958095709561957F4F8F4FEC
:101F50009F4F9923A9F0F92F96E9BB279395F69502
:101F6000879577956795B795F111F8CFFAF4BB0F80
:101F700011F460FF1BC06F5F7F4F8F4F9F4F16C0E4
:101F8000882311F096E911C0772321F09EE8872F6E
:101F9000762F05C0662371F096E8862F70E060E02A
:101FA0002AF09A95660F771F881FDAF7880F9695A3
:101FB000879597F90895990F0008550FAA0BE0E847
:101FC000FEEF16161706E807F907C0F012161306FB
:101FD000E407F50798F0621B730B840B950B39F43B
:101FE0000A2661F0232B242B252B21F408950A26A1
:101FF00009F4A140A6958FEF811D811D089597F9E1
:102000009F6780E870E060E008959FEF80EC08959E
:1020100000240A94161617061806090608950024C7
:102020000A94121613061406050608950C9405105A
:102030000E946E10D8F3E894E0E0BB279F57F0F0C1
:102040002AED3FE049EC06C0EE0FBB0F661F771F7D
:10205000881F28F0B23A62077307840728F0B25A43
:10206000620B730B840BE3959A9572F7803830F40A
:102070009A95BB0F661F771F881FD2F790480C9464
:102080000B11092E0394000C11F4882352F0BB0F9E
:1020900040F4BF2B11F460FF04C06F5F7F4F8F4F80
:1020A0009F4F0895EF93E0FF07C0A2EA2AED3FE0BB
:1020B00049EC5FEB0E94970E0E9441100F90039431
:1020C00001FC9058ECEAF0E00C94171157FD905881
:1020D000440F551F59F05F3F71F04795880F97FBEC
:1020E000991F61F09F3F79F08795089512161306A6
:1020F0001406551FF2CF4695F1DF08C016161706D5
:102100001806991FF1CF8695710561050894089509
:10211000E894BB2766277727CB0197F908950E949B
:10212000DB0F08F48FEF08950E94A7100C94411064
:102130000E94081038F00E940F1020F0952311F033
:102140000C94FF0F0C94051011240C9489100E941C
:10215000661070F3959FC1F3950F50E0551F629F75
:10216000F001729FBB27F00DB11D639FAA27F00DF0
:10217000B11DAA1F649F6627B00DA11D661F829F17
:102180002227B00DA11D621F739FB00DA11D621FFC
:10219000839FA00D611D221F749F3327A00D611D19
:1021A000231F849F600D211D822F762F6A2F1124FB
:1021B0009F5750409AF0F1F088234AF0EE0FFF1F2E
:1021C000BB1F661F771F881F91505040A9F79E3F85
:1021D000510580F00C94FF0F0C9489105F3FE4F3DD
:1021E000983ED4F3869577956795B795F795E795DB
:1021F0009F5FC1F7FE2B880F911D9695879597F9E4
:1022000008959F930E9418100F9007FCEE5F0C94A6
:1022100052109F3F31F0915020F487957795679544
:10222000B795880F911D9695879597F908959F9377
:102230008F937F936F93FF93EF939B01AC010E9469
:102240009410EF91FF910E942B112F913F914F918C
:102250005F910C949410DF93CF931F930F93FF9291
:10226000EF92DF927B018C01689406C0DA2EEF01B9
:102270000E94A710FE01E894A59125913591459102
:102280005591A6F3EF010E94970EFE019701A80158
:10229000DA9469F7DF90EF90FF900F911F91CF9143
:0822A000DF910895F894FFCFCF
:1022A800FFFFFFFF00E1000000000000AB01AB01F1
:1022B800AB01AB01AB010000B44400000C4258E98B
:1022C8005B4332000000003FCDCCCC3D0000000055
:1022D8000000000000000000B44400000C4258E96F
:1022E8005B43320000C1808100000000000000F262
:1022F8000271021303080359031703350300000092
:0423080000B304001A
:00000001FF
